:100000000C9462000C948A000C948A000C948A0070
:100010000C948A000C948A000C948A000C948A0038
:100020000C948A000C948A000C948A000C948A0028
:100030000C948A000C948A000C948A000C948A0018
:100040000C9465050C948A000C9433050C940D05F2
:100050000C948A000C948A000C948A000C948A00F8
:100060000C94AF050C948A000000000024002700C7
:100070002A0000000000250028002B0000000000DE
:1000800023002600290004040404040404040202DA
:100090000202020203030303030301020408102007
:1000A0004080010204081020010204081020000012
:1000B0000008000201000003040700000000000027
:1000C0000000DD0611241FBECFEFD8E0DEBFCDBF9C
:1000D00023E0A4E7B1E001C01D92AB32B207E1F723
:1000E00011E0A0E0B1E0E6E0F3E102C005900D927E
:1000F000A437B107D9F710E0C2E6D0E004C02197D9
:10010000FE010E947609C136D107C9F70E9428076F
:100110000C9481090C940000EAE3F2E0A089B18913
:1001200082E08C93A485B5851C92A685B7858FEC5B
:100130008C93108EA489B58986E08C93A289B389AB
:100140008C9180618C93A289B3898C9188608C9307
:10015000A289B3898C9180688C930288F389E02D01
:1001600080818F7D808308958091EE0190E02091C1
:10017000ED01821B91090895CF92DF92EF92FF92D9
:100180000F931F93CF93DF936C017A018B01C0E033
:10019000D0E0CE15DF0589F0D8016D918D01D60133
:1001A000ED91FC910190F081E02DC6010995892B1C
:1001B00011F47E0102C02196ECCFC701DF91CF91EF
:1001C0001F910F91FF90EF90DF90CF900895FC0169
:1001D000538D448D252F30E0842F90E0821B930BAC
:1001E000541710F0CF96089501970895FC01918D52
:1001F000828D981761F0828DDF01A80FB11D5D9689
:100200008C91928D9F5F9F73928F90E008958FEFF6
:100210009FEF0895FC01918D828D981731F0828DAA
:10022000E80FF11D858D90E008958FEF9FEF089501
:10023000FC01918D228D892F90E0805C9F4F821B65
:1002400091098F73992708958AE392E00E9418011B
:1002500021E0892B09F420E0822F0895FC01848D90
:10026000DF01A80FB11DA35ABF4F2C91848D90E0E0
:1002700001968F739927848FA689B7892C93A089BB
:10028000B1898C9180648C93938D848D981306C072
:100290000288F389E02D80818F7D80830895EF921D
:1002A000FF920F931F93CF93DF93EC0181E0888F30
:1002B0009B8D8C8D981305C0E889F989808185FD17
:1002C00024C0F62E0B8D10E00F5F1F4F0F73112708
:1002D000E02E8C8DE8120CC00FB607FCFACFE8892F
:1002E000F989808185FFF5CFCE010E942E01F1CFE3
:1002F0008B8DFE01E80FF11DE35AFF4FF0820B8F4B
:10030000EA89FB898081806207C0EE89FF8960836A
:10031000E889F98980818064808381E090E0DF91C1
:10032000CF911F910F91FF90EF900895CF93DF939E
:10033000EC01888D8823C9F0EA89FB89808185FDDD
:1003400005C0A889B9898C9186FD0FC00FB607FC3E
:10035000F5CF808185FFF2CFA889B9898C9185FF7F
:10036000EDCFCE010E942E01E7CFDF91CF9108950E
:1003700080E090E0892B29F00E94240181110C94E7
:1003800000000895833081F028F4813099F08230A4
:10039000A1F008958730A9F08830B9F08430D1F405
:1003A000809180008F7D03C0809180008F77809343
:1003B0008000089584B58F7702C084B58F7D84BD99
:1003C00008958091B0008F7703C08091B0008F7D39
:1003D0008093B0000895CF93DF93282F30E0F90188
:1003E000E255FF4F8491F901E656FF4FD491F90190
:1003F000EA57FF4FC491CC2391F081110E94C201B2
:10040000EC2FF0E0EE0FFF1FE458FF4FA591B491E1
:10041000EC91ED2381E090E021F480E002C080E0E7
:1004200090E0DF91CF9108951F93CF93DF93282F12
:1004300030E0F901E255FF4F8491F901E656FF4F94
:10044000D491F901EA57FF4FC491CC23C9F0162F7C
:1004500081110E94C201EC2FF0E0EE0FFF1FEE5859
:10046000FF4FA591B4918FB7F894111105C09C91DD
:10047000ED2FE095E92302C0EC91ED2BEC938FBFBB
:10048000DF91CF911F910895CF93DF9390E0FC010E
:10049000E656FF4F2491FC01EA57FF4F84918823D1
:1004A00061F190E0880F991FFC01E859FF4FC59159
:1004B000D491FC01EE58FF4FA591B491611109C090
:1004C0009FB7F8948881209582238883EC912E230E
:1004D0000BC0623061F49FB7F8943881822F809509
:1004E00083238883EC912E2B2C939FBF06C08FB75C
:1004F000F894E8812E2B28838FBFDF91CF91089548
:100500003FB7F8948091C0019091C101A091C201C0
:10051000B091C30126B5A89B05C02F3F19F00196E5
:10052000A11DB11D3FBFBA2FA92F982F8827820F79
:10053000911DA11DB11DBC01CD0142E0660F771FC9
:10054000881F991F4A95D1F708958F929F92AF9275
:10055000BF92CF92DF92EF92FF926B017C010E94DB
:1005600080024B015C01C114D104E104F104F1F0FB
:100570000E948002DC01CB0188199909AA09BB09F4
:10058000883E9340A105B10570F321E0C21AD1085D
:10059000E108F10888EE880E83E0981EA11CB11CCA
:1005A000C114D104E104F10419F7DDCFFF90EF90FD
:1005B000DF90CF90BF90AF909F908F9008952FB70E
:1005C000F8946091BC017091BD018091BE01909141
:1005D000BF012FBF08958F929F92AF92BF92CF928B
:1005E000DF92EF92FF926B017C010E94DF024B01D0
:1005F0005C01C60ED71EE81EF91E0E94DF026815B8
:1006000079058A059B0528F0C616D706E806F9067F
:10061000A0F7FF90EF90DF90CF90BF90AF909F90AA
:100620008F90089585ED8093BC008091BC0084FD7F
:10063000FCCF10921502089540919601262F30E0CC
:10064000240F311D21323105DCF4209115022430B4
:10065000C9F4FC0180E090E0861758F430919601CF
:100660002191DC01AC58BE4FA30FB11D2C93019614
:10067000F3CF80919601680F6093960180E0089512
:1006800081E0089582E008950895E091ED01809160
:10069000EE01E81730F4F0E0E353FE4F808190E084
:1006A00008958FEF9FEF08959091ED018091EE01F5
:1006B000981750F4E92FF0E0E353FE4F208130E02B
:1006C0009F5F9093ED0102C02FEF3FEFC9010895A6
:1006D000CF92DF92EF92FF920F931F93CF93DF930E
:1006E0007C01262F972F8A0180913902882391F06F
:1006F000C62FD72F6E01C40ED51ECC15DD0571F0A7
:100700006991D701ED91FC910190F081E02DC70135
:100710000995F3CF642F822F0E941C03C801DF913B
:10072000CF911F910F91FF90EF90DF90CF900895A0
:10073000CF93DF931F92CDB7DEB769832091390243
:100740002223D1F020913602203240F021E030E027
:10075000FC013383228380E090E015C08091370252
:10076000E82FF0E0EA5EFD4F998190838F5F8093E0
:1007700037028093360205C061E0CE0101960E94E7
:100780001C0381E090E00F90DF91CF9108950895D0
:1007900080E090E008956115710579F0FB0101900A
:1007A0000020E9F73197AF01461B570BDC01ED91B3
:1007B000FC910280F381E02D099480E090E008959F
:1007C0000F931F93CF93DF938C0181E080933902C5
:1007D00083E780933802109237021092360263E466
:1007E0008FE193E00E94980380913602813208F0F5
:1007F00049C0C0911502C111FCCF92E0909315023F
:1008000091E0909314029FEF9093130210921202C2
:1008100080931102A6E1B2E021EF31E0F9019E2FB1
:10082000921B981718F49D919193F9CF1092F001B3
:100830009091F001966E9093F0018091EF018130DC
:1008400061F41092EF018091F0018093BB008091E0
:10085000BC0083FDF8CF85EC01C085EE8093BC0021
:10086000809115028230E1F3809113028F3F79F07D
:1008700080911302803241F080911302803331F075
:10088000C4E005C0C1E003C0C2E001C0C3E01092F3
:1008900037021092360210923902CC2339F064E20A
:1008A00071E08AE392E00E94CB0352C0C09115022E
:1008B000C111FCCF91E090931502909314028FEF39
:1008C0008093130210921202109211029093F00181
:1008D0009091F001966E9093F0018091EF0181303C
:1008E00061F41092EF018091F0018093BB00809140
:1008F000BC0083FDF8CF85EC01C085EE8093BC0081
:10090000809115028130E1F380911202811103C0C0
:10091000D091120201C0D1E0A1EFB1E02DEC31E0A5
:10092000F9018E2F821B8D1718F48D918193F9CFC9
:100930001092ED01D093EE018091ED01D81741F0B6
:100940008FE193E00E945403F80181938F01F4CF6B
:100950008C2FDF91CF911F910F9108954F925F924D
:100960006F927F92EF92FF920F931F93CF93DF933B
:10097000CDB7DEB7A1970FB6F894DEBF0FBECDBFDF
:100980007C01FA01CB0119A2223008F42AE08E0181
:100990000F5D1F4F422E512C612C712CBF01A30102
:1009A00092010E945409F901CA01015011096A30EB
:1009B00014F4605D01C0695CD8016C93232B242B77
:1009C000252B61F7B801C7010E94CB03A1960FB692
:1009D000F894DEBF0FBECDBFDF91CF911F910F9175
:1009E000FF90EF907F906F905F904F9008950F93DE
:1009F0001F93CF93DF93EC010E94CB038C016AE439
:100A000071E0CE010E94CB03800F911FDF91CF9147
:100A10001F910F9108950E947C091F920F920FB6AB
:100A20000F9211242F933F934F935F936F937F9374
:100A30008F939F93AF93BF93EF93FF938AE392E0DB
:100A40000E942E01FF91EF91BF91AF919F918F91E5
:100A50007F916F915F914F913F912F910F900FBEBA
:100A60000F901F9018951F920F920FB60F9211249E
:100A70002F938F939F93EF93FF93E0914A02F0910E
:100A80004B028081E0915002F091510282FD12C030
:100A90009081809153028F5F8F732091540282174F
:100AA00051F0E0915302F0E0E65CFD4F958F8093AA
:100AB000530201C08081FF91EF919F918F912F91FF
:100AC0000F900FBE0F901F9018951F920F920FB6A8
:100AD0000F9211242F933F938F939F93AF93BF93C4
:100AE0008091BC019091BD01A091BE01B091BF0168
:100AF0003091BB0123E0230F2D3720F40196A11D77
:100B0000B11D05C026E8230F0296A11DB11D20933B
:100B1000BB018093BC019093BD01A093BE01B09333
:100B2000BF018091C0019091C101A091C201B0911B
:100B3000C3010196A11DB11D8093C0019093C10115
:100B4000A093C201B093C301BF91AF919F918F91C8
:100B50003F912F910F900FBE0F901F9018951F92ED
:100B60000F920FB60F9211242F933F934F935F93E1
:100B70006F937F938F939F93AF93BF93EF93FF9365
:100B80008091B900887F803609F49CC068F588326E
:100B900009F45BC090F4803109F454C038F4882320
:100BA00009F4F6C0883009F44DC0F6C0883109F464
:100BB0004CC0803209F45DC0EFC0803409F468C0D5
:100BC00048F4803309F455C0883309F0E5C08093B8
:100BD0001302D8C0803509F44FC0883509F45DC0D0
:100BE000883409F0D9C0D6C0883909F4C7C0A8F440
:100BF000883709F467C038F4883609F463C0803751
:100C000009F460C0C9C0883809F4B8C0803909F453
:100C10005FC0803809F0C0C05BC0803B09F486C06B
:100C200038F4803A09F466C0883A09F47FC0B4C049
:100C3000803C09F4A7C0883C09F4A4C0883B09F4AF
:100C40008AC0AAC08091F00110C0909112028091D8
:100C50001102981770F5E091120281E08E0F8093D7
:100C60001202F0E0EF50FE4F80818093BB0085ECD4
:100C700086C0809313028EC0E091120281E08E0F35
:100C8000809312028091BB00F0E0EF50FE4F808312
:100C900090911202809111026EC0E091120281E0E7
:100CA0008E0F809312028091BB00F0E0EF50FE4F58
:100CB00080838091140281116DC081E08093EF01E7
:100CC00084EA61C083E0809315021092BA01CFCF0D
:100CD0008091BA01803208F051C0E091BA0181E000
:100CE0008E0F8093BA018091BB00F0E0E656FE4F74
:100CF0008083BDCF85EC8093BC001092150280915B
:100D0000BA01803230F4E091BA01F0E0E656FE4FCD
:100D100010826091BA0170E0E0919801F091990120
:100D20008AE991E009951092BA0136C084E0809377
:100D300015021092970110929601E0919401F091A2
:100D40009501099580919601811105C081E08093FC
:100D5000960110927401E091970181E08E0F8093CB
:100D60009701F0E0EC58FE4F80818093BB0090919A
:100D7000970180919601981708F479CF85E88093C0
:100D8000BC000AC085EC8093BC001092150204C020
:100D9000109213020E941203FF91EF91BF91AF9145
:100DA0009F918F917F916F915F914F913F912F9183
:100DB0000F900FBE0F901F901895EAE3F2E0138298
:100DC000128288EE93E0A0E0B0E084839583A6834E
:100DD000B78324E031E03183208325EC30E0358790
:100DE000248724EC30E03787268720EC30E0318BF5
:100DF000208B21EC30E0338B228B22EC30E0358BE2
:100E0000248B26EC30E0378B268B118E128E138EBE
:100E1000148EE7EDF2E01682178210861186128694
:100E200013861486158616861786108A118A128AEA
:100E3000138A148A158AEFE1F3E013821282848305
:100E40009583A683B78386E191E09183808308959B
:100E5000CF93DF931F92CDB7DEB7789484B58260CD
:100E600084BD84B5816084BD85B5826085BD85B54E
:100E7000816085BD80916E00816080936E001092CC
:100E80008100809181008260809381008091810047
:100E900081608093810080918000816080938000D8
:100EA0008091B10084608093B1008091B000816036
:100EB0008093B00080917A00846080937A00809162
:100EC0007A00826080937A0080917A0081608093BA
:100ED0007A0080917A00806880937A001092C10035
:100EE00010921B0310921C0310921D0310921E03FC
:100EF0001092D9021092DA021092DB021092DC02F8
:100F000068EB7BE080E090E00E94EB028AE392E0F5
:100F100090931A03809319030E948C000E94DF02B1
:100F20006093D9027093DA028093DB029093DC0223
:100F30006BE371E08091190390911A030E94CB0337
:100F40006AE070E080E090E00E94EB0281E0809334
:100F5000ED020E948C0060E08BE00E94440260E0A1
:100F60008CE00E94440261E089E00E94440261E05A
:100F70008AE00E9444028AE392E00E94F600809395
:100F8000C40184EF882E99249394A12CB12C0E9443
:100F9000DF02672B682B692B41F40E94DF0262306D
:100FA00071058105910508F405C10E94DF02609377
:100FB000C9017093CA018093CB019093CC01C0907A
:100FC000C501D090C601E090C701F090C8016C1532
:100FD0007D058E059F0540F46093C5017093C601A1
:100FE0008093C7019093C801C090C501D090C601FD
:100FF000E090C701F090C8019B01AC012C193D099C
:101000004E095F0969017A013AEFC316D104E10480
:10101000F10408F4CFC06093C5017093C6018093BA
:10102000C7019093C8018092E5029092E602A092D7
:10103000E702B092E8021092E9021092EA021092DE
:10104000EB021092EC028091DD029091DE02A09101
:10105000DF02B091E0028093E1029093E202A0935C
:10106000E302B093E4020E94DF026093DD0270931A
:10107000DE028093DF029093E0020E94DF02609321
:10108000D9027093DA028093DB029093DC020E9413
:10109000DF026B017C016DE471E080911903909196
:1010A0001A030E94CB032AE041E050E060E070E0C8
:1010B0008091190390911A030E94AE0464E571E0D7
:1010C0008091190390911A030E94CB032AE0B70183
:1010D000A6018091190390911A030E94AE0466E55F
:1010E00071E08091190390911A030E94CB038091C3
:1010F000DD029091DE02A091DF02B091E002B70123
:10110000A601481B590B6A0B7B0B2AE0809119033F
:1011100090911A030E94AE0466E571E08091190374
:1011200090911A030E94CB034091DD025091DE02A0
:101130006091DF027091E0028091E1029091E20201
:10114000A091E302B091E402481B590B6A0B7B0BA0
:101150002AE08091190390911A030E94AE0468E579
:1011600071E08091190390911A030E94CB030E94B1
:10117000DF02AB01BC012AE08091190390911A03B0
:101180000E94AE046AE571E08091190390911A0300
:101190000E94F70465E070E080E090E00E94EB02BE
:1011A0000E94DF026093DD027093DE028093DF0213
:1011B0009093E0021982CE0101960E94E003811112
:1011C00041C089818430B1F460E273E080E090E056
:1011D0000E94A502CE0101960E94E00361E671E043
:1011E0008AE392E00E94F70461E089E00E94140221
:1011F00060E01FC0883091F460E273E080E090E02E
:101200000E94A502CE0101960E94E00364E671E00F
:101210008AE392E00E94F70460E007C069E671E0AB
:101220008AE392E00E94F70461E089E00E941402E0
:1012300061E08AE00E94140268EE73E080E090E0D2
:101240000E94A5028BE00E94EB01892B41F461E032
:1012500089E00E94140261E08AE00E9414028CE09E
:101260000E94EB01892B41F461E089E00E941402A5
:1012700061E08AE00E9414028AE392E00E94180171
:101280001816190674F48091C401813321F0823359
:1012900059F760E0EACF61E089E00E94140260E063
:1012A000E8CF0E94B80173CEA1E21A2EAA1BBB1B85
:1012B000FD010DC0AA1FBB1FEE1FFF1FA217B30722
:1012C000E407F50720F0A21BB30BE40BF50B661F38
:1012D000771F881F991F1A9469F7609570958095FC
:1012E00090959B01AC01BD01CF010895EE0FFF1F4A
:1012F0000590F491E02D099481E090E0F8940C942D
:061300008109F894FFCF03
:10130600000000004F01BC00E70096011801F6003E
:101316000A010000000098036803C8034403B400F0
:10132600540345035472616E736D697373696F6E0E
:10133600206572726F722121210A00564D44505663
:101346005F317C315F564D4450560D0A00564D4470
:1013560050455F003A323A007C005F564D44504596
:1013660000557000446F776E00656C736520736975
:04137600676E00009E
:00000001FF
